:100000000C9434000C943E000C943E000C943E0082
:100010000C943E000C943E000C943E000C943E0068
:100020000C943E000C943E000C943E000C943E0058
:100030000C943E000C943E000C943E000C943E0048
:100040000C943E000C943E000C943E000C943E0038
:100050000C943E000C943E000C943E000C943E0028
:100060000C943E000C943E0011241FBECFEFD8E04C
:10007000DEBFCDBF0E9445000C9461000C940000CF
:100080008AB1837C8AB9259A08958AB1837C8AB91A
:10009000259A99B129B189B189B1807292FF02C0C4
:1000A00023FD0DC081110BC02D9A2FEF81EE94E03E
:1000B000215080409040E1F700C00000EACF2D9829
:0600C000F4CFF894FFCF1D
:00000001FF
